:10000000000000308A00E028A101A117AE00FE30F8
:100010008C202E088C28A401A900AA01A011240874
:100020000319A0150530A3002730A80010302420A4
:100030000330A800E8302420A80164302420A8015F
:100040000A30242029082B28A7002A08A6002908FE
:10005000A5009F202508A500A3030319A0112408CB
:1000600003193528230203183C282508031DA01175
:10007000A0193C28303E8C280800AC0087100710DF
:100080008316871007100F30870583122C08A018DD
:1000900067283E30A600803090203330AB007B20B4
:1000A0001330A600883090207B2064308F207B2086
:1000B00064308F202230AB007B20283066200C304B
:1000C000662006306620A0142C0867282014AB0098
:1000D000201C75280710033C031C7A287A2007305F
:1000E000A600D0309020031408002014FE3C031911
:1000F0008A280714201C201087140F3087052B082E
:10010000F039870400008710AB0E000020187B2810
:1001100032308F202C08DC28A11B3D280800A601C6
:10012000FC3EA500A609031C9B28FF300000A50784
:1001300003189628A5070000A60F95280800AA0115
:10014000A9011030AB00260DA90DAA0D2708A902A0
:100150002808031C280FAA020318B5282708A90796
:1001600028080318280FAA070310A50DA60DAB0B2E
:10017000A328250808001030AF00A601A501AC0C8B
:10018000AB0C031CC9282708A50728080318280F4B
:10019000A607A60CA50CAA0CA90CAF0BBF28290812
:1001A0000800A500A61BD6202508DC28A509A6095D
:1001B000A50A0319A60A0800831383120313080073
:1001C00083120313A0018316031788018901831288
:1001D000870188010313B501B60107308316850036
:1001E00086010830870003178801890183120313F1
:1001F0008A110A127A2136083507B000360835020E
:10020000A500A601031CA6038A01D220B10035086F
:1002100036028A110A12031812293508B2008A110F
:100220000A1214293608B200AC013508AB00A80147
:100230003608A7008A01BB20B3002A08B40080302A
:10024000A1008A01042053308A013D2075308A01C3
:100250003D206D308A013D203D308A013D20033034
:10026000A40030088A010C208030A10088308A0167
:10027000042041308A013D2062308A013D207330E4
:100280008A013D203D308A013D200330A400310821
:100290008A010C208030A100C0308A0104204D303A
:1002A0008A013D2061308A013D2078308A013D205D
:1002B0003D308A013D200330A40032088A010C2021
:1002C0008030A100C8308A0104204D308A013D20D1
:1002D00055308A013D204C308A013D203D308A0155
:1002E0003D20A4013308A9003408AA008A010E2089
:1002F0008A01F628B501B6010730B7003708860035
:100300000518B50A8518B60AB7088A110A12031922
:100310008D290310B50D0310B60D0130B7028A11F7
:0C0320000A1203187E2908008A019429A3
:02400E00D220BE
:02401000FF3F70
:00000001FF
